:020000020000FC
:1000000006E000B9099A1ED0AED0CAEFD0E060D0A9
:100010004CD0C2E3D0E05CD0F6CF28E0330F48F0FC
:10002000099800000A9A00000A982A95B9F7099AD7
:100030000895099A00000A9A00000A982A9571F713
:10004000099A089594E030E0E8DF9A95E1F7089581
:10005000AEE130EE3360E1DF3FEFDFDF30E0DDDFE8
:1000600030E0DBDFAA95A9F72ED04BD00895AEE1A2
:1000700030EE3360D2DF30E0D0DF30E0CEDF3FEF74
:10008000CCDFAA95A9F71FD03CD00895AEE130EEA1
:100090003360C3DF30E0C1DF3FEFBFDF30E0BDDF03
:1000A000AA95A9F710D02DD00895AEE130EE3360B7
:1000B000B4DF30E0B2DF30E0B0DF30E0AEDFAA9591
:1000C000A9F701D0089530E0A8DF30E0A6DF089559
:1000D00007D02197E9F7089503D00A95E9F7089525
:1000E000CF93DF93CFEBD9E02197F1F7DF91CF9159
:1000F000089503D00A95E9F7089500000000000074
:100100000895CAE0D0E0E4DF0895AEE1B0E0B03099
:1001100039F0F7DF97DFAEE115D0BE31C1F70895B2
:1001200004D0C1E00FD0BE3191F730EE336075DFFF
:1001300030EF73DF3FEF71DF3FE06FDFAA95B395DC
:10014000CC27089530EE336068DF30E066DF30E0C2
:1001500064DF30E062DFC395BC1739F3AA9591F7ED
:10016000B2DFCC270895AEE1BEE1CBDF6BDFAEE1BD
:1001700004D013D0B030C9F70895CEE1CB1B30EED8
:1001800033604BDF3FE049DF30EF47DF3FEF45DFD4
:10019000CA95AAF7BA95AA95089530EE33603DDF67
:1001A00030E03BDF30E039DF30E037DFAA95A9F7F8
:0401B0008ADF089545
:00000001FF
